:04FFF00043001F00AB
:08FFF800000000000000000001
:0300000002019C5E
:0C019C0078FFE4F6D8FD7581070200B47E
:0301C0000201C376
:0C01A800E4F5A4F5A575E25075E1C02255
:0101C3002219
:1000B400E4F591780C7401F2780CE26011F5907F0C
:1000C400507EC312017D780CE225E0F280EA780CC0
:1000D4007480F2780CE260DBF5907F507EC31201ED
:0900E4007D780CE2C313F280EAFE
:10017D00E4FDFCC3ED9FEC9E50070DBD00010C800E
:01018D00F27F
:01018E00224E
:10016400E4FDFCC3ED9FEC9E500EE4FB0BEBB46688
:08017400FB0DBD00010C80EB46
:01017C002260
:0D018F0075DD0F75DC0F75D86430DBFD22C7
:0301B40012018FA6
:0901B7008FDA75D84430DBFD221B
:100144001201B4E5D964186002800BAF051201B73F
:10015400E5D96428600575D854C32275D854D322D0
:100070001201B4E5D9641860028025AF051201B7FA
:10008000E5D9642860028018E4FE7805E2FFEEC33B
:100090009F501C120119FF1201B7E5D964286005B1
:1000A00075D854C322740129F9E43AFA0E80DB753D
:0300B000D854D34E
:0100B300222A
:1000ED0012018FEF04FF1201B7E5D9644060028061
:1000FD000C75D84030DBFDE5D96458600575D854D2
:0C010D00C322E5DA12013275D854D32267
:02000300AE0746
:1000050012018F1201B7E5D9641860028039AF0576
:100015001201B7E5D964286002802C75D86430DBFD
:10002500FDEE04FF1201B7E5D9644060028018E4D3
:10003500FF780BE214FEEFC39E502075D84430DBE9
:10004500FDE5D96450600575D854C322E5DA12017F
:1000550032740129F9E43AFA0F80D675D84030DBBD
:0A006500FDE5DA12013275D854D31C
:01006F00226E
:10011900BB010689828A83E0225002E722BBFE02E4
:09012900E32289828A83E4932217
:10013200BB010689828A83F0225002F722BBFE01AC
:02014200F322A6
:00000001FF
